:100000000C947C000C94A4000C94A4000C94A40008
:100010000C94A4000C94A4000C94A4000C94A400D0
:100020000C94A4000C94A4000C94A4000C94A400C0
:100030000C94A4000C94A4000C94A4000C94A400B0
:100040000C94CB040C94A4000C9499040C947304A9
:100050000C94A4000C94A4000C94A4000C94A40090
:100060000C9415050C94A400720787078707860770
:100070008707640787078707870766078707870754
:100080007907840782078707870787078007323346
:100090003A35333A3337004D6172202039203230FF
:1000A0003139001F1C1F1E1F1E1F1F1E1F1E1F0079
:1000B000000000250028002B0004040404040404AC
:1000C0000402020202020203030303030301020407
:1000D00008102040800102040810200102040810CA
:1000E00020000000080002010000030407000000D7
:1000F000000000000000430611241FBECFEFD8E02F
:10010000DEBFCDBF11E0A0E0B1E0EEE2F4E102C05D
:1001100005900D92AA3CB107D9F723E0AAECB1E013
:1001200001C01D92A033B207E1F710E0CCE7D0E0A8
:1001300004C02197FE010E94F009CB37D107C9F70F
:100140000E947C060C94150A0C940000382F209114
:10015000860290918502213208F049C080916202A6
:100160008111FCCF42E040936202309361023FEF85
:100170003093600210925F0220935E02A5E6B2E027
:100180004EE352E0FA013E2F341B321718F43D9132
:100190003193F9CF10923D0220913D02990F922B9D
:1001A00090933D0290913C02913061F410923C0298
:1001B00090913D029093BB009091BC0093FDF8CFCD
:1001C00095EC01C095EE9093BC0090916202923044
:1001D000E1F3909160029F3F79F08091600280325C
:1001E00041F080916002803331F084E005C081E00D
:1001F00003C082E001C083E0109264021092860284
:1002000010926302089590E0FC01EF51FF4F24919A
:10021000FC01E353FF4F3491FC01E754FF4FE4919D
:10022000EE23B1F1222339F1233091F038F421305B
:10023000A9F0223001F584B58F7D12C0273091F0EE
:100240002830A1F02430B9F4809180008F7D03C064
:10025000809180008F77809380000DC084B58F7768
:1002600084BD09C08091B0008F7703C08091B00039
:100270008F7D8093B000F0E0EE0FFF1FE155FF4F40
:10028000A591B4918FB7F894EC913E2B3C938FBF1E
:100290000895E0918702F09188020190F081E02DAD
:1002A000682F87E892E00994CF92DF92EF92FF9255
:1002B0000F931F93CF93DF936C017A018B01C0E002
:1002C000D0E0CE15DF0589F0D8016D918D01D60102
:1002D000ED91FC910190F081E02DC6010995892BEB
:1002E00011F47E0102C02196ECCFC701DF91CF91BE
:1002F0001F910F91FF90EF90DF90CF900895FC0138
:10030000538D448D252F30E0842F90E0821B930B7A
:10031000541710F0CF96089501970895FC01918D20
:10032000828D981761F0828DDF01A80FB11D5D9657
:100330008C91928D9F5F9F73928F90E008958FEFC5
:100340009FEF0895FC01918D828D981731F0828D79
:10035000E80FF11D858D90E008958FEF9FEF0895D0
:10036000FC01918D228D892F90E0805C9F4F821B34
:1003700091098F739927089587E892E00E94B00150
:1003800021E0892B09F420E0822F0895FC01848D5F
:10039000DF01A80FB11DA35ABF4F2C91848D90E0AF
:1003A00001968F739927848FA689B7892C93A0898A
:1003B000B1898C9180648C93938D848D981306C041
:1003C0000288F389E02D80818F7D80830895EF92EC
:1003D000FF920F931F93CF93DF93EC0181E0888FFF
:1003E0009B8D8C8D981305C0E889F989808185FDE6
:1003F00024C0F62E0B8D10E00F5F1F4F0F731127D7
:10040000E02E8C8DE8120CC00FB607FCFACFE889FD
:10041000F989808185FFF5CFCE010E94C601F1CF19
:100420008B8DFE01E80FF11DE35AFF4FF0820B8F19
:10043000EA89FB898081806207C0EE89FF89608339
:10044000E889F98980818064808381E090E0DF9190
:10045000CF911F910F91FF90EF900895CF93DF936D
:10046000EC01888D8823C9F0EA89FB89808185FDAC
:1004700005C0A889B9898C9186FD0FC00FB607FC0D
:10048000F5CF808185FFF2CFA889B9898C9185FF4E
:10049000EDCFCE010E94C601E7CFDF91CF91089545
:1004A00080E090E0892B29F00E94BC0181110C941E
:1004B000000008953FB7F8948091160290911702BA
:1004C000A0911802B091190226B5A89B05C02F3F34
:1004D00019F00196A11DB11D3FBFBA2FA92F982F6A
:1004E0008827820F911DA11DB11DBC01CD0142E0E5
:1004F000660F771F881F991F4A95D1F70895FC0151
:10050000908190539A3008F090E0818180532AE0E6
:10051000929F800D11240895803D27E0920710F0EE
:10052000805D974050E0E3EAF0E021E02E1B322F9F
:100530003E0F361728F43491430F511D3196F7CFF3
:10054000633038F09C0123703327232B11F44F5F65
:100550005F4F2DE631E0829FB001839F700D929F27
:10056000700D1124615071099C012D5F3F4F36952C
:10057000279536952795CB01820F931F840F951FE2
:100580000895EF92FF920F931F93CF93DF93EC01A7
:1005900088814A81698190E00E948C029C01A8E1D7
:1005A000B0E00E94F6092B817B018C01E20EF11C68
:1005B000011D111DA8019701ACE3B0E00E94050ADE
:1005C0002C817B018C01E20EF11C011D111DA80183
:1005D00097010E94050A2D81DC01CB01820F911D3C
:1005E000A11DB11DBC01CD0160587C4B8249974CC7
:1005F000DF91CF911F910F91FF90EF90089585EDBE
:100600008093BC008091BC0084FDFCCF10926202FC
:1006100008954091EC01262F30E0240F311D213246
:100620003105DCF4209162022430C9F4FC0180E041
:1006300090E0861758F43091EC012191DC01A6532B
:10064000BE4FA30FB11D2C930196F3CF8091EC0107
:10065000680F6093EC0180E0089581E0089582E0E6
:1006600008950895E0911B0280911A02E81730F472
:10067000F0E0E45EFD4F808190E008958FEF9FEF02
:10068000089590911B0280911A02981750F4E92F57
:10069000F0E0E45EFD4F208130E09F5F90931B020D
:1006A00002C02FEF3FEFC901089580911A0290E038
:1006B00020911B02821B91090895CF92DF92EF9245
:1006C000FF920F931F93CF93DF937C01262F972FD9
:1006D0008A0180916302882391F0C62FD72F6E0183
:1006E000C40ED51ECC15DD0571F06991D701ED91D1
:1006F000FC910190F081E02DC7010995F3CF642FA3
:10070000822F0E940903C801DF91CF911F910F91A1
:10071000FF90EF90DF90CF900895CF93DF931F92DB
:10072000CDB7DEB76983209163022223D1F02091F7
:100730008602203240F021E030E0FC013383228346
:1007400080E090E015C080916402E82FF0E0EB5962
:10075000FD4F998190838F5F80936402809386021E
:1007600005C061E0CE0101960E94090381E090E09E
:100770000F90DF91CF910895089580E090E0089563
:10078000009769F0FC0101900020E9F73197AF0173
:10079000481B590BBC0187E892E00C94540180E09F
:1007A00090E00895CF93DF930E94C003EC0188E7A7
:1007B00091E00E94C0038C0F9D1FDF91CF9108959F
:1007C0008F929F92AF92BF920F931F93CF93DF931D
:1007D000CDB7DEB7A1970FB6F894DEBF0FBECDBF81
:1007E00019A2423008F44AE08E010F5D1F4F842E9B
:1007F000912CA12CB12CA50194010E94CE09E62FC9
:10080000B901CA0101501109EA3014F4E05D01C0D8
:10081000E95CD801EC93232B242B252B61F7C8012D
:100820000E94C003A1960FB6F894DEBF0FBECDBFE5
:10083000DF91CF911F910F91BF90AF909F908F90BC
:100840000895909162029111FCCF813208F080E20C
:1008500091E090936202909361022FEF20936002E7
:1008600010925F02280F20935E0290933D029091B8
:100870003D02906D90933D0290913C02913061F465
:1008800010923C0290913D029093BB009091BC006D
:1008900093FDF8CF95EC01C095EE9093BC0090913C
:1008A00062029130E1F390915F02981710F4809109
:1008B0005F02AEE3B2E02CE132E0F9019E2F921B21
:1008C000981718F49D919193F9CF10921B02809381
:1008D0001A020895682F70E080E090E04AE00C94DE
:1008E000E0030E94100A1F920F920FB60F9211247C
:1008F0002F933F934F935F936F937F938F939F9328
:10090000AF93BF93EF93FF9387E892E00E94C601F5
:10091000FF91EF91BF91AF919F918F917F916F91D7
:100920005F914F913F912F910F900FBE0F901F90AD
:1009300018951F920F920FB60F9211242F938F9339
:100940009F93EF93FF93E0919702F091980280813B
:10095000E0919D02F0919E0282FD12C090818091F3
:10096000A0028F5F8F732091A102821751F0E09156
:10097000A002F0E0E957FD4F958F8093A00201C0DF
:100980008081FF91EF919F918F912F910F900FBEDA
:100990000F901F9018951F920F920FB60F9211246F
:1009A0002F933F938F939F93AF93BF9380911202A6
:1009B00090911302A0911402B0911502309111028E
:1009C00023E0230F2D3720F40196A11DB11D05C092
:1009D00026E8230F0296A11DB11D209311028093DA
:1009E000120290931302A0931402B0931502809107
:1009F000160290911702A0911802B0911902019667
:100A0000A11DB11D8093160290931702A0931802A6
:100A1000B0931902BF91AF919F918F913F912F9108
:100A20000F900FBE0F901F9018951F920F920FB648
:100A30000F9211242F933F934F935F936F937F9364
:100A40008F939F93AF93BF93EF93FF938091B900E0
:100A5000887F803609F49CC068F5883209F45BC051
:100A600090F4803109F454C038F4882309F4F6C0B6
:100A7000883009F44DC0F6C0883109F44CC080328A
:100A800009F45DC0EFC0803409F468C048F48033D5
:100A900009F455C0883309F0E5C080936002D8C0DE
:100AA000803509F44FC0883509F45DC0883409F0F9
:100AB000D9C0D6C0883909F4C7C0A8F4883709F46A
:100AC00067C038F4883609F463C0803709F460C021
:100AD000C9C0883809F4B8C0803909F45FC08038CB
:100AE00009F0C0C05BC0803B09F486C038F4803A8E
:100AF00009F466C0883A09F47FC0B4C0803C09F4A8
:100B0000A7C0883C09F4A4C0883B09F48AC0AAC0E5
:100B100080913D0210C090915F0280915E02981713
:100B200070F5E0915F0281E08E0F80935F02F0E04C
:100B3000E25CFD4F80818093BB0085EC86C0809392
:100B400060028EC0E0915F0281E08E0F80935F02B1
:100B50008091BB00F0E0E25CFD4F808390915F02EA
:100B600080915E026EC0E0915F0281E08E0F809303
:100B70005F028091BB00F0E0E25CFD4F80838091DA
:100B8000610281116DC081E080933C0284EA61C002
:100B900083E08093620210921002CFCF8091100206
:100BA000803208F051C0E091100281E08E0F8093F6
:100BB00010028091BB00F0E0E051FE4F8083BDCF7A
:100BC00085EC8093BC00109262028091100280320A
:100BD00030F4E0911002F0E0E051FE4F108260919D
:100BE000100270E0E091EE01F091EF0180EF91E0F2
:100BF00009951092100236C084E080936202109230
:100C0000ED011092EC01E091EA01F091EB01099500
:100C10008091EC01811105C081E08093EC0110927C
:100C2000CA01E091ED0181E08E0F8093ED01F0E0CB
:100C3000E653FE4F80818093BB009091ED0180913F
:100C4000EC01981708F479CF85E88093BC000AC0BE
:100C500085EC8093BC001092620204C01092600286
:100C60000E94FF02FF91EF91BF91AF919F918F91F1
:100C70007F916F915F914F913F912F910F900FBE98
:100C80000F901F901895E7E8F2E01382128288EE29
:100C900093E0A0E0B0E084839583A683B78328E542
:100CA00031E03183208325EC30E03587248724EC44
:100CB00030E03787268720EC30E0318B208B21EC29
:100CC00030E0338B228B22EC30E0358B248B26EC0A
:100CD00030E0378B268B118E128E138E148EE4E249
:100CE000F3E01382128284839583A683B7838AE616
:100CF00091E0918380830895CF93DF93CDB7DEB7E2
:100D00002C970FB6F894DEBF0FBECDBF789484B594
:100D1000826084BD84B5816084BD85B5826085BDF7
:100D200085B5816085BD80916E00816080936E0085
:100D30001092810080918100826080938100809177
:100D40008100816080938100809180008160809328
:100D500080008091B10084608093B1008091B000E8
:100D600081608093B00080917A00846080937A00E3
:100D700080917A00826080937A0080917A0081600D
:100D800080937A0080917A00806880937A00109234
:100D9000C100E0919702F091980282E08083E09197
:100DA0009702F09198021082E0919302F0919402E0
:100DB0001082E0919502F091960280E1808310927A
:100DC0009F02E0919B02F0919C0286E08083E0917B
:100DD0009902F0919A02808180618083E09199026A
:100DE000F0919A02808188608083E0919902F0916D
:100DF0009A02808180688083E0919902F0919A0242
:100E000080818F7D808310921B0210921A021092B3
:100E10006402109286021092620201E00093610265
:100E200010923C0282E10E94030183E10E940301CF
:100E30008091B9008E7F8093B9008091B9008D7F39
:100E40008093B90088E48093B80085E48093BC0067
:100E50000093630288E680938502109264021092E8
:100E6000860260E084E293E00E948D0381E00E94AC
:100E7000A60081E090E00E94210484E293E00E94B9
:100E8000410387FFCCC08BE791E00E94D2034BE087
:100E900050E067E970E0CE0101960E94A509CE01FD
:100EA0000A960E947F02082FE9814E2FEE0F550B04
:100EB000660B770BFA01E154F109E331F10538F5DE
:100EC000EC5CFF4F0C94F00912E021C08A8181365E
:100ED00039F08B818E3611F017E019C016E017C07B
:100EE00011E015C08B81823711F018E010C014E0BA
:100EF0000EC08B81823711F015E009C013E007C0E6
:100F000019E005C01AE003C01BE001C01CE0CE01DF
:100F100005960E947F02E82E48E050E06EE870E0FF
:100F2000CE0101960E94A509CE0101960E947F0282
:100F3000D82ECE0104960E947F02C82ECE010796BD
:100F40000E947F02B82E81E08093630288E680933E
:100F50008502109264021092860260E084E293E0BF
:100F60000E948D03AAE0FA2E8B2D6F2D0E94AE09F0
:100F7000482F880F480F440F642F6B0D84E293E0D5
:100F80000E948D038C2D6F2D0E94AE09382F880F83
:100F9000380F330F632F6C0D84E293E00E948D03B2
:100FA0008D2D6F2D0E94AE09282F880F280F220F3C
:100FB000622F6D0D84E293E00E948D0360E084E275
:100FC00093E00E948D038E2D6F2D0E94AE09982F05
:100FD000880F980F990F692F6E0D84E293E00E949D
:100FE0008D03812F6F2D0E94AE09682F660F860F2B
:100FF000880F682F610F84E293E00E948D03802F99
:101000006F2D0E94AE09682F660F680F660F600F84
:1010100084E293E00E948D0381E00E94A6001AEF13
:10102000ECE38E2E912CA12CB12CF3E92F2EFEEFA8
:101030003F2E21E02093630238E630938502109220
:1010400064021092860260E084E293E00E948D03C5
:1010500081E00E94A60087E090E00E94210484E2E3
:1010600093E00E9441038F77982F92959F70082FED
:10107000919F000D112484E293E00E9441039C01A2
:10108000332794E0359527959A95E1F7F82E129F2E
:10109000F00C112484E293E00E9441039C01332769
:1010A00044E0359527954A95E1F7E82E129FE00C2C
:1010B000112484E293E00E94410384E293E00E94C1
:1010C00041039C01332754E0359527955A95E1F764
:1010D000D82E129FD00C112484E293E00E94410389
:1010E0009C01332764E0359527956A95E1F7C82E72
:1010F000129FC00C112484E293E00E944103AC01D2
:10110000552774E0559547957A95E1F7149F800D22
:101110001124682F70E06053784F8983CA82DB8284
:10112000EC82FD820E83072E000C880B990B4AE09F
:101130000E94E0038FE20E9449018A810E946A04B2
:101140008FE20E9449018B810E946A048FE891E03E
:101150000E94C00389814B816A8190E00E948C02C9
:10116000069667E070E00E94BA094CE0489F900143
:10117000499F300D1124C90180509F4F0E94C00328
:1011800082E991E00E94C0038C810E946A048AE394
:101190000E9449018D810E946A048AE30E944901EC
:1011A0008E810E946A0488E791E00E94C00385E96D
:1011B00091E00E94C003CE0101960E94C1024AE064
:1011C0000E94E00381EB91E00E94C003CE010196F2
:1011D0000E94C10220E831E541E050E00E94CE09C2
:1011E000CA01B9014AE00E94E00386EB91E00E9447
:1011F000D203CE0101960E94C10262537945834613
:101200009843A50194010E94CE09062FCA01B90195
:10121000A50194010E94CE09F62ECA01B90128E168
:1012200030E040E050E00E94CE09E62E3901D12C9A
:1012300081E09D2D937009F080E091E09D0D482F95
:1012400050E0BA0163597E4F6616770638F0910177
:10125000241B350B620E731ED92EEACF51E0E52F09
:10126000F0E0EE55FF4FE491882319F0523009F475
:10127000EF5FF0E091E0950F6E167F0620F06E1A9A
:101280007F0A592FECCF88EB91E05C870E94C00366
:101290006D2D70E06053784F072E000C880B990B72
:1012A0004AE00E94E0038FE20E9449015C85852F9D
:1012B0000E946A048FE20E94490181E0860D0E942B
:1012C0006A0480E20E9449018E2D0E946A048AE32A
:1012D0000E9449018F2D0E946A048AE30E944901FD
:1012E000802F0E946A0488E791E00E94C00388E78B
:1012F00091E00E94C0030E945A022B013C0188EB3E
:10130000C82E8BE0D82EE12CF12C0E945A02DC0171
:10131000CB0184199509A609B709883E9340A10518
:10132000B10558F031E0C31AD108E108F10848EEE0
:10133000440E43E0541E611C711CC114D104E1042D
:10134000F10419F70E94500274CEFB01DC0102C0C7
:1013500005900D9241505040D8F70895991B79E0BF
:1013600004C0991F961708F0961B881F7A95C9F735
:1013700080950895AA1BBB1B51E107C0AA1FBB1F84
:10138000A617B70710F0A61BB70B881F991F5A9511
:10139000A9F780959095BC01CD010895A1E21A2E80
:1013A000AA1BBB1BFD010DC0AA1FBB1FEE1FFF1F09
:1013B000A217B307E407F50720F0A21BB30BE40B59
:1013C000F50B661F771F881F991F1A9469F76095A0
:1013D0007095809590959B01AC01BD01CF0108955A
:1013E000EE0FFF1F0590F491E02D0994A29FB0012C
:1013F000B39FC001A39F700D811D1124911DB29F49
:10140000700D811D1124911D08950E94F609A59F5C
:10141000900DB49F900DA49F800D911D11240895EF
:0E14200081E090E0F8940C94150AF894FFCF48
:10142E0053756E6461790000000000004D6F6E64AC
:10143E0061790000000000005475657364617900E5
:10144E00000000005765646E6573646179000000EA
:10145E0054687572736461790000000046726964A5
:10146E006179000000000000536174757264617947
:10147E000000000000000000E70154017F012E0271
:10148E00B0018E01A201000000008D035D03BD03BB
:10149E0031035503410332030D0A005254432069B0
:1014AE0073204E4F542072756E6E696E6721002048
:1014BE0028002920002073696E6365206D69646EB3
:1014CE006967687420312F312F31393730203D2034
:1014DE000073203D20006400206E6F77202B203794
:0A14EE0064202B203330733A2000F5
:107800000C94343C0C94513C0C94513C0C94513CE1
:107810000C94513C0C94513C0C94513C0C94513CB4
:107820000C94513C0C94513C0C94513C0C94513CA4
:107830000C94513C0C94513C0C94513C0C94513C94
:107840000C94513C0C94513C0C94513C0C94513C84
:107850000C94513C0C94513C0C94513C0C94513C74
:107860000C94513C0C94513C11241FBECFEFD8E036
:10787000DEBFCDBF11E0A0E0B1E0ECE9FFE702C060
:1078800005900D92A230B107D9F712E0A2E0B1E065
:1078900001C01D92AD30B107E1F70E942D3D0C945F
:1078A000CC3F0C94003C982F959595959595959582
:1078B000905D8F708A307CF0282F295A8091C0000B
:1078C00085FFFCCF9093C6008091C00085FFFCCF60
:1078D0002093C6000895282F205DF0CF982F809127
:1078E000C00085FFFCCF9093C6000895EF92FF92F1
:1078F0000F931F93EE24FF2487018091C00087FD22
:1079000017C00894E11CF11C011D111D81E4E8164B
:1079100082E4F8068FE0080780E0180770F3E09132
:107920000401F091050109958091C00087FFE9CF1E
:107930008091C6001F910F91FF90EF9008950E94D3
:10794000763C982F8091C00085FFFCCF9093C600B5
:1079500091362CF490330CF09053892F089597555D
:10796000892F08951F930E949F3C182F0E949F3CCF
:107970001295107F810F1F9108951F93182F882350
:1079800021F00E94763C1150E1F71F9108951F935A
:10799000182F0E94763C803249F0809103018F5F5E
:1079A000809303018530C1F01F9108958091C0003C
:1079B00085FFFCCF84E18093C6008091C00085FFE5
:1079C000FCCF1093C6008091C00085FFFCCF80E102
:1079D0008093C6001F910895E0910401F091050184
:1079E00009951F9108950E94763C803241F0809164
:1079F00003018F5F80930301853081F008958091AA
:107A0000C00085FFFCCF84E18093C6008091C00058
:107A100085FFFCCF80E18093C6000895E0910401CA
:107A2000F09105010995089540E951E08823A1F0FE
:107A30002D9A28EE33E0FA013197F1F721503040CA
:107A4000D1F72D9828EE33E0FA013197F1F7215064
:107A50003040D1F7815061F708953F924F925F9285
:107A60006F927F928F929F92AF92BF92CF92DF924E
:107A7000EF92FF920F931F93CF93DF93000080E16B
:107A80008093C4001092C50088E18093C10086E015
:107A90008093C2005098589A259A81E00E94143D24
:107AA00024E1F22E9EE1E92E85E9D82E0FE0C02ECA
:107AB00010E1B12EAA24A394B1E49B2EA6E58A2E50
:107AC000F2E57F2EE0E26E2E79E4572E63E5462E36
:107AD00050E5352E0E94763C8033B1F18133B9F107
:107AE000803409F46FC0813409F476C0823409F41B
:107AF00085C0853409F488C0803531F1823521F1A3
:107B0000813511F1853509F485C0863509F48DC0BC
:107B1000843609F496C0843709F403C1853709F423
:107B200072C1863709F466C0809103018F5F80932C
:107B30000301853079F6E0910401F0910501099582
:107B40000E94763C803351F60E94F33CC3CF0E94E2
:107B5000763C803249F78091C00085FFFCCFF092DF
:107B6000C6008091C00085FFFCCF9092C600809136
:107B7000C00085FFFCCF8092C6008091C00085FFC9
:107B8000FCCF7092C6008091C00085FFFCCF609250
:107B9000C6008091C00085FFFCCF5092C600809146
:107BA000C00085FFFCCF4092C6008091C00085FFD9
:107BB000FCCF3092C6008091C00085FFFCCFB09210
:107BC000C60088CF0E94763C863808F4BDCF0E945C
:107BD000763C0E94F33C7ECF0E94763C803809F4CC
:107BE0009CC0813809F40BC1823809F43CC1883942
:107BF00009F48FC080E00E94C73C6CCF84E10E94F2
:107C0000BD3C0E94F33C66CF85E00E94BD3C0E94D3
:107C1000F33C60CF0E94763C809306010E94763C44
:107C2000809307010E94F33C55CF0E94763C80333D
:107C300009F41DC183E00E94BD3C80E00E94C73C66
:107C400049CF0E94763C809309020E94763C809343
:107C5000080280910C028E7F80930C020E94763C79
:107C6000853409F415C18091080290910902892B8D
:107C700089F000E010E00E94763CF801E85FFE4FDA
:107C800080830F5F1F4F80910802909109020817AF
:107C9000190788F30E94763C803209F045CF809125
:107CA0000C0280FF01C16091060170910701660F0F
:107CB000771F7093070160930601A0910802B091AD
:107CC00009021097C9F0E8E0F1E09B01AD014E0F09
:107CD0005F1FF999FECF32BD21BD819180BDFA9A17
:107CE000F99A2F5F3F4FE417F50799F76A0F7B1F4B
:107CF00070930701609306018091C00085FFFCCF5F
:107D0000F092C6008091C00085FFFCCFB092C60003
:107D1000E1CE83E00E94C73CDDCE82E00E94C73CFA
:107D2000D9CE0E94763C809309020E94763C8093D3
:107D300008028091060190910701880F991F909386
:107D40000701809306010E94763C853409F4A6C0A1
:107D500080910C028E7F80930C020E94763C8032D0
:107D600009F0B8CE8091C00085FFFCCFF092C6002C
:107D7000609108027091090261157105B9F140E046
:107D800050E080910C02A82FA170B82FB27011C0E2
:107D9000BB2309F45CC0E0910601F0910701319624
:107DA000F0930701E09306014F5F5F4F46175707B7
:107DB000E8F4AA2369F3F999FECF209106013091E6
:107DC000070132BD21BDF89A90B58091C00085FFB2
:107DD000FCCF9093C6002F5F3F4F30930701209355
:107DE00006014F5F5F4F4617570718F38091C00099
:107DF00085FDE5CE8091C00085FFF8CFE0CE81E023
:107E00000E94C73C67CE0E94763C803209F08CCE3F
:107E10008091C00085FFFCCFF092C6008091C00029
:107E200085FFFCCFE092C6008091C00085FFFCCFAB
:107E3000D092C6008091C00085FFFCCFC092C600E2
:107E40008091C00085FFFCCFB092C60043CEE09188
:107E50000601F091070194918091C00085FFFCCF4D
:107E60009093C6009CCF80E10E94C73C33CE0E9415
:107E7000763C0E94763C182F0E94763C112309F430
:107E800083C0113009F484C08FE00E94C73C22CE29
:107E900080910C02816080930C02E5CE80910C02EF
:107EA000816080930C0259CF809107018823880F4D
:107EB000880B8A2180930B02809106019091070123
:107EC000880F991F90930701809306018091080203
:107ED00080FF09C080910802909109020196909359
:107EE000090280930802F894F999FECF1127E091D6
:107EF0000601F0910701C8E0D1E08091080290915D
:107F00000902103091F40091570001700130D9F34B
:107F100003E000935700E89500915700017001308D
:107F2000D9F301E100935700E89509901990009169
:107F3000570001700130D9F301E000935700E89534
:107F40001395103498F011270091570001700130FB
:107F5000D9F305E000935700E895009157000170B0
:107F60000130D9F301E100935700E895329602976A
:107F700009F0C7CF103011F00296E5CF112480919F
:107F8000C00085FFB9CEBCCE8EE10E94C73CA2CD19
:0C7F900085E90E94C73C9ECDF894FFCF0D
:027F9C00800063
:040000030000780081
:00000001FF
